:04000000C7EF0AF04C
:08000800046ED8CF05F0E0CF33
:1000100006F00001E9CF0CF0EACF07F0E1CF08F0DD
:10002000E2CF09F0D9CF0AF0DACF0BF0F3CF12F01C
:10003000F4CF13F0FACF14F0F5CF15F0F6CF16F099
:10004000F7CF17F000C00EF001C00FF002C010F0A3
:1000500003C011F0F2AA30EF00F0F2B483EF01F028
:100060009DA236EF00F09EB29BEF01F09DAA3CEFFF
:1000700000F09EBAD9EF01F09DA842EF00F09EB8C3
:10008000A4EF01F00EC000F00FC001F010C002F0AC
:1000900011C003F00CC0E9FF07C0EAFF078E08C0DB
:1000A000E1FF09C0E2FF0AC0D9FF0BC0DAFF12C0AE
:1000B000F3FF13C0F4FF14C0FAFF15C0F5FF16C01C
:1000C000F6FF17C0F7FF045006C0E0FF05C0D8FFD9
:1000D0001000F76AE20FF66E000EF7220900F550E5
:1000E000120000C1814001C0804101C0804100C1B7
:1000F000814001C0804100C1814000C1814001C0F8
:10010000804101C0804100C1814000C1814001C0E7
:10011000804100C1814001C0804101C0804100C1D7
:10012000814001C0804100C1814000C1814001C0C7
:10013000804100C1814001C0804101C0804100C1B7
:10014000814000C1814001C0804101C0804100C1A7
:10015000814001C0804100C1814000C1814001C097
:10016000804101C0804100C1814000C1814001C087
:10017000804100C1814001C0804101C0804100C177
:10018000814000C1814001C0804101C0804100C167
:10019000814001C0804100C1814000C1814001C057
:1001A000804100C1814001C0804101C0804100C147
:1001B000814001C0804100C1814000C1814001C037
:1001C000804101C0804100C1814000C1814001C027
:1001D000804100C1814001C0804101C0804100C117
:1001E0008140F76AF20FF66E010EF7220900F55012
:1001F000120000C0C101C30302C2C60607C705C57D
:10020000C404CC0C0DCD0FCFCE0E0ACACB0BC9093E
:1002100008C8D81819D91BDBDA1A1EDEDF1FDD1D4E
:100220001CDC14D4D515D71716D6D21213D311D17E
:10023000D010F03031F133F3F23236F6F737F535CE
:1002400034F43CFCFD3DFF3F3EFEFA3A3BFB39F9FE
:10025000F83828E8E929EB2B2AEAEE2E2FEF2DEDCE
:10026000EC2CE42425E527E7E62622E2E323E1213E
:1002700020E0A06061A163A3A26266A6A767A5654E
:1002800064A46CACAD6DAF6F6EAEAA6A6BAB69A9BE
:10029000A86878B8B979BB7B7ABABE7E7FBF7DBDCE
:1002A000BC7CB47475B577B7B67672B2B373B171FE
:1002B00070B05090915193535292965657975595CE
:1002C00094549C5C5D9D5F9F9E5E5A9A9B5B99597E
:1002D0005898884849894B8B8A4A4E8E8F4F8D4D4E
:1002E0004C8C4484854587474686824243834181BE
:1002F0008040F29A0101775304E0D76AD66AF294FB
:10030000F28A00011200CD5102080AE1CE5308E141
:10031000CF5306E1CCB104D0020ED15FCC8101D025
:10032000CC91CF69CE69CD6B0101776B0001E1DF24
:10033000F29442EF00F090859E9242EF00F09EA86A
:10034000FED7AD6EB7EF01F0C951CA5D03E3CB83B1
:100350009D980ED0036ACA51910FE96E000E0320DA
:10036000EA6EEFCF76F1010176510001E8D7CA2B92
:100370009E9842EF00F09EAAFED7ABCF1AF0AECF08
:1003800001F01AA202D0AB98AB881200CF51010144
:100390007719786F036A785100019BDE016ECE51A8
:1003A0000118CF6F036A0101785100011ADFCE6F87
:1003B0001200E1DF01C076F18A2BD8B48B2BCCB1CF
:1003C0002AD0CD5308E1CF69CE6976C1D0F0CD2BCC
:1003D000D16BD36B18D0CD2D04D076C1D2F0CD2BFC
:1003E00012D0CD5102080FE1D1517E0802E27E0EFB
:1003F000D16F036AD151D40FE96E000E0320EA6E6B
:1004000076C1EFFFD12B76C177F1C0DF010E01017C
:10041000776F00016EDF9E9A42EF00F02320706339
:10042000506F7765722025730D0A000032322D4619
:1004300065622D3136002320726573746172745FBA
:10044000636175736528293D257520005744545F05
:1004500054494D454F5554004D434C525F46524F01
:100460004D5F534C454550004D434C525F46524FF3
:100470004D5F52554E004E4F524D414C5F504F57BD
:1004800045525F55500042524F574E4F55545F52A0
:1004900045535441525400005744545F46524F4D07
:1004A0005F534C454550000052455345545F494EFB
:1004B000535452554354494F4E00756E6B6E6F77CF
:1004C0006E2100000D0A000023207063506F7765D5
:1004D0007220257320636F6E6669672E6D6F64628C
:1004E00075735F616464726573733D25750D0A00F1
:1004F00032322D4665622D313600700ED36E9B9CD4
:100500009B9EC050C00B0509C06EC08EC280100EED
:100510007E6EC190C192C194C196000E7F6E900E06
:10052000BA6E3F0E776EF19E5F0E786EF19E8D6B08
:100530008F6B020E8E6F909190939095C96BCA6BE2
:10054000CB91CB93756B746B776B766B796B786BA8
:100550007B6B7A6B7D6B7C6B7F6B7E6B736B806B65
:10056000826B816B8C6B2FC085F02EC084F02BC00A
:1005700087F02AC086F0896B886B000E0609CA6E68
:10058000F90ECB6E9D82F4EF0AF00900F6CF5AF116
:10059000F7CF5BF1F5509EA8FED7AD6E5AC1F6FFBE
:1005A0005BC1F7FF0101592F01D002D00001EDD747
:1005B000000112000900F5520DE0F6CF59F1F7CF16
:1005C0005AF1F5509EA8FED7AD6E59C1F6FF5AC13B
:1005D000F7FFF0D7120001015C51016A5B5D03E295
:1005E0005BC100F00CD0006A080E5D6F5B3700360F
:1005F0005C51005CD8B0006E01365D2FF7D700016A
:100600001200015059C15BF1640E01015C6F0001E1
:10061000E2DF00C059F10150300E08E101015AA398
:100620000ED05AB70CD05AB9200E04D001015A97F7
:100630005A995A81012601509EA8FED7AD6E59C124
:100640005BF10A0E5C6F0001C6DF00C059F101507A
:10065000300E08E101015AB70BD05AA109D05AB99E
:10066000200E0001012601509EA8FED7AD6E0101AB
:10067000300E592759519EA8FED7AD6E00011200C9
:100680000101626B61C103F06051D8B4610760077A
:10069000636F03C064F1635302E1645330E05FC1F0
:1006A00003F05E51E96E03C0EAFF5D51036E5C51D9
:1006B0005C2BD8B45D2B656F03C066F1F2CF67F198
:1006C000F29E65C1A9FFA69CA69EA680A85067BF02
:1006D000F28EEF6E5FC103F05E51E96E03C0EAFF78
:1006E000EFCF63F162C174F163C175F17451751993
:1006F000016E01C062F15E2BD8B45F2BC3D762C11B
:1007000001F00001ADEF03F0960E8D6F800E1B6EB1
:10071000500E1D6E260E1F6E930E1E6E216A140E55
:10072000206E226A020E246E760E236E266A020E58
:10073000256E276A010E326E120001015B6B1B0EE3
:100740005A6F5D6B020E5C6F5BC15FF15AC15EF167
:10075000616B180E606F000193D701C059F1F2CFA1
:100760005AF1F29EA96AA69CA69EA680A8500101F5
:100770005ABFF28E595D03E00001C6DF010100019E
:1007800073EF0BF09EAA02D0F6DDFCD79D8A120013
:10079000F9DFC20ED56EC00EF2127EEF0BF0732B96
:1007A00073510F0801E2736B100E016EC250C30B40
:1007B0000110C26ED8907335036A330FE96E000ED4
:1007C0000320EA6EC282C2B2FED7C3CFEFFFC4CF0E
:1007D000ECFF3C0E016EC250C30B0110C26ED890EC
:1007E0007335036A530FE96E000E0320EA6EC2826E
:1007F000C2B2FED7C3CFEFFFC4CFECFF120090957B
:10080000938881B802D0010E8C6F32A005D08C5332
:1008100003E0949E8B8E02D0949E8B9E8D5303E1B9
:10082000949C8B9C03D0949C8B8C8D077E3D03D035
:100830007F3D01D003D07E2BD8B47F2B0101562BF6
:10084000D8B4572B5651E80844E15751030841E109
:10085000576B566B0001813D03D0823D01D003D020
:10086000812BD8B4822B235202E124520FE0245072
:10087000825D0CE303E18151235C08E28E5306E1C3
:100880008F5304E126C08FF025C08EF08E5305E112
:100890008F5303E194988B880CD094988B988E5149
:1008A000D8B48F078E078E5304E18F5302E1826B19
:1008B000816B0101532B53513C080BE1536B000139
:1008C0007C3D03D07D3D01D003D07C2BD8B47D2B63
:1008D0000101000190A304D090930101556B546B6A
:1008E0000101542BD8B4552B2050545D08E1215000
:1008F000555D05E1556B546B0001908101010001CC
:10090000B9EF0BF0CCB104D0000E016E0AD006D0C6
:10091000D2AF04D0D4C0D3F0010ED16FCC91010E70
:10092000016EBBEF09F0010161511F080CE162513A
:100930004E0809E16351200806E164514E0803E1C5
:10094000010E016E2ED0625102080FE2FF0A03E190
:100950006151E7080AE26451030807E303E16351C8
:10096000F50803E3010E016E1CD0625106080FE288
:10097000FF0A03E16151CF080AE26451090807E365
:1009800003E16351D10803E3010E016E0AD0645301
:1009900006E16351140803E3010E016E02D0000E5C
:1009A000016E0001F2EF09F0036AC951910FE96E7F
:1009B000000E0320EA6E6BC1EFFFC92B196AF2BE6D
:1009C000198EF29E6BC177F1E1DC19BEF28E120036
:1009D000C96BCA6BCF69CE69CC9169C16BF1E4DF99
:1009E0006AC16BF1E1DF1200CFC06AF1CEC069F1DC
:1009F0006AC16BF1D9DF69C16BF1D6DFCF69CE690E
:100A0000CB811200010160518009636F61C164F103
:100A10005FC169F16A6F0001DBDF62C16BF1C4DFA6
:100A2000E3DF120001016D51200DF350036A330F13
:100A3000016E000E032201C071F103C072F16F6BF1
:100A40006E6B706B70510F0811E3D8907035036AAC
:100A50007125E96E72510320EA6EECCF03F0ED527E
:100A6000EF506E2703506F23702BECD7080E6E25C6
:100A7000736F000E6F21746F7431036E7331026EE9
:100A80000332023203320232033202320F0E0316F5
:100A900002C001F003C002F000011200756B746B1C
:100AA000776B766B796B786BEEEF06F001016C512A
:100AB000060826E2FF0A03E16B51CF0821E26C51E0
:100AC00009081EE303E16B51CF081AE3D00E6B5DFA
:100AD0006D6F070E6C596E6F800E6D27000E6E23C2
:100AE000F2CF6FF1F29E6DC1A9FFA69CA69EA680D3
:100AF000A8506FBFF28E036A016E0350026ED7D109
:100B00006B51006E6C51036E035005E10052000101
:100B1000D8B4DFD00101035006E1010E005C0001F2
:100B2000D8B4E9D00101035006E1020E005C0001D7
:100B3000D8B4ECD00101035006E1030E005C0001C3
:100B4000D8B4F6D00101035006E1060E005C0001A6
:100B5000D8B4FAD00101035006E1070E005C000191
:100B6000D8B4FDD00101035006E10A0E005C00017B
:100B7000D8B4FDD00101035006E10B0E005C00016A
:100B8000D8B401D10101035006E10C0E005C000154
:100B9000D8B400D10101035006E10D0E005C000144
:100BA000D8B4FFD00101035006E1100E005C000133
:100BB000D8B4FED00101035006E1110E005C000123
:100BC000D8B4FDD00101035006E1120E005C000113
:100BD000D8B4FCD00101035006E1130E005C000103
:100BE000D8B4FBD00101030E035C06E1E80E005C03
:100BF0000001D8B4F9D00101030E035C06E1E90E4F
:100C0000005C0001D8B4F8D00101030E035C06E1DA
:100C1000EA0E005C0001D8B4F6D00101030E035CBB
:100C200006E1EB0E005C0001D8B4F4D00101030E24
:100C3000035C06E1EC0E005C0001D8B4F2D00101C7
:100C4000030E035C06E1ED0E005C0001D8B4F0D0A9
:100C50000101030E035C06E1EE0E005C0001D8B456
:100C6000EED00101030E035C06E1EF0E005C000113
:100C7000D8B4EDD00101030E035C06E1F00E005C78
:100C80000001D8B4EBD00101030E035C06E1F10EC4
:100C9000005C0001D8B4EAD00101030E035C06E158
:100CA000F20E005C0001D8B4E8D00101030E035C31
:100CB00006E1F30E005C0001D8B4E6D00101030E9A
:100CC000035C06E1F40E005C0001D8B4E5D001013C
:100CD000EAD0D8907335036A330FE96E000E032013
:100CE000EA6EECCF03F0ED52EFCF01F003C002F05B
:100CF0000101DDD0000101016D6B000193DE0150A7
:100D0000016E0250026E0101D2D00001D8907335FD
:100D1000036A530FE96E000E0320EA6EECCF03F076
:100D2000ED52EF50016E0350026E0101C0D0000180
:100D3000010E01016D6F000175DE0150016E025060
:100D4000026E0101B4D000019388000E81A8010E4B
:100D5000036A016E0350026E0101A9D00001036A0B
:100D60008C51016E0350026E0101A1D000017B5134
:100D7000036E7A517A2BD8B47B2B016E0350026E2E
:100D8000010195D000017E51016E7F51026E01017B
:100D90008ED000017C51016E7D51026E010187D021
:100DA00000018151016E8251026E010180D000016B
:100DB0007451016E7551026E010179D000017651B6
:100DC000016E7751026E010172D000017851016EFF
:100DD0007951026E01016BD0000160D6000E016EE8
:100DE000026E010164D00001036A1D50016E0350C0
:100DF000026E01015CD000011E50016E1F50026E98
:100E0000010155D00001500E016E000E026E01016D
:100E10004ED00001430E016E000E026E010147D05C
:100E20000001500E016E000E026E010140D0000163
:100E3000010E016E000E026E010139D00001036A3D
:100E40001B50016E0350026E010131D00001205091
:100E5000016E2150026E01012AD00001036A225066
:100E6000016E0350026E010122D000012350016E79
:100E70002450026E01011BD000012550016E265046
:100E8000026E010114D00001036A2750016E035065
:100E9000026E01010CD00001036A3250016E035052
:100EA000026E010104D0FF0E016E026E00D000013F
:100EB0007EEF07F060C169F15FC16AF189DDD8900A
:100EC00001016335696F64356A6F69C16BF10001B7
:100ED0006BDD0101666B656B6651645D22E303E1C6
:100EE0006351655D1EE265516125696F665162213E
:100EF0006A6F6C6F69C16BF10001D8D502C068F1EF
:100F000001C067F168C169F168C16BF14DDD67C16E
:100F100069F167C16BF148DD0101652BD8B4662B1F
:100F2000DBD7000161DD11EF0AF00101726B71C1C5
:100F300003F07051D8B471077007736F03C074F178
:100F4000735302E174533CE06FC103F06E51E96EDC
:100F500003C0EAFFEFCF73F172C174F173C175F191
:100F600074517519016E01C072F16D51036E6C51AF
:100F70006C2BD8B46D2B736F03C074F16F51036E7B
:100F80006E516E2BD8B46F2BE96E03C0EAFFEFCF22
:100F900075F173C1A9FF75C1A8FFA69CA69EA68482
:100FA000F250006EF29E0F01550EA76EAA0EA76EAC
:100FB000A682A6B2FED7A6940050F2120101B7D7BE
:100FC00072C101F00001F5EF07F001016B6B1B0E20
:100FD0006A6F6D6B020E6C6F6BC16FF16AC16EF15F
:100FE000716B180E706F0001A0D701C069F1A96A7A
:100FF00069C1A8FFA69CA69EA684F250006EF29E30
:101000000F01550EA76EAA0EA76EA682A6B2FED736
:10101000A6940050F21200016CEF09F00101665134
:1010200006083AE2FF0A03E16551CF0835E266514E
:10103000090832E303E16551CF082EE36851000847
:1010400008E2FF0A03E16751000803E2030E016EA4
:1010500046D1D00E655D696F070E66596A6F800EC6
:101060006927000E6A2369C1A9FF67C1A8FFA69C72
:10107000A69EA684F250006EF29E0F01550EA76E3A
:10108000AA0EA76EA682A6B2FED7A6940050F212B0
:10109000000E016E010123D1000180531BE001010C
:1010A0006551E80809E16651030806E167C11DF0D2
:1010B000000E016E14D10DD06551E9080AE16651A8
:1010C000030807E168C11FF067C11EF0000E016E42
:1010D00006D1000101016551006E6651036E035097
:1010E00006E1070E005C0001D8B465D00101030ED3
:1010F000035C06E1EE0E005C0001D8B467D001018C
:10110000030E035C06E1EF0E005C0001D8B46BD067
:101110000101030E035C06E1F00E005C0001D8B48F
:1011200068D00101030E035C06E1F10E005C0001D2
:10113000D8B46CD00101030E035C06E1F20E005C32
:101140000001D8B468D00101030E035C06E1F30E80
:10115000005C0001D8B46DD00101030E035C06E110
:10116000F40E005C0001D8B471D00101070E035CDD
:1011700006E1CD0E005C0001D8B475D00101070E68
:10118000035C06E1CE0E005C0001D8B476D001010C
:10119000070E035C06E1CF0E005C0001D8B479D0E5
:1011A00001014E0E035C06E11F0E005C0001D8B485
:1011B0007BD001018DD00101675302E1685303E048
:1011C000030E016E8CD000018C6B86D00101685338
:1011D00003E16751800803E2030E016E80D067C10E
:1011E0001BF0000179D0908368C121F067C120F025
:1011F00073D00101685303E16751010803E2030E54
:10120000016E6DD067C122F0000166D068C124F084
:1012100067C123F061D00101675305E1685303E121
:10122000030E016E5CD068C126F067C125F0000195
:1012300053D00101685303E16751010803E2030E33
:10124000016E4DD067C127F0000146D001016853FF
:1012500003E16751010803E2030E016E40D067C14C
:1012600032F0000139D00101672D02D0685303E04C
:10127000030E016E34D0FF0000010101672D02D082
:10128000685303E0030E016E2AD0000184EC03F0E2
:1012900023D00101672D02D0685303E0030E016ED5
:1012A0001ED0000192D618D0010167510A0803E14F
:1012B0006851070806E00001806B030E016E010112
:1012C0000ED0010E0001806FC80E8D6F05D0010198
:1012D000020E016E04D00001000E016E010100013A
:1012E000120061C169F1060E01016A6F0001E8ECAC
:1012F00004F063C166F163C16BF1D4EC04F062C128
:1013000066F162C16BF1D4EC04F065C166F165C1B0
:101310006BF1D4EC04F064C166F164C16BF1D4EC00
:1013200004F0F4EC04F048EF0AF05FC169F1100E2C
:1013300001016A6F0001E8EC04F061C164F161C170
:101340006BF1D4EC04F060C164F160C16BF1D4ECDA
:1013500004F063C164F163C16BF1D4EC04F062C1C9
:1013600064F162C16BF1D4EC04F0F4EC04F0A7EF8B
:101370000AF082EF04F00152D8B407D11B50800864
:1013800004E01B50D05DD8A4F6D0743D03D0753D69
:1013900001D003D0742BD8B4752B140E8D6FD2519D
:1013A000030A07E0070A05E0020A3CE0160A71E0BA
:1013B000D0D0D4C05AF1D5C059F1D6C05CF1D7C055
:1013C0005BF101015B5159255F6F5C515A21606FE0
:1013D0005AC162F159C161F1646F5FC163F10001EB
:1013E00093EF04F0015210E1D0C05FF10101616B95
:1013F000D2C060F1020E626F000102EC05F0796B61
:10140000020E786F8D6B0DD0D2C05FF1D0C060F14D
:101410005AC162F159C161F15CC164F15BC163F110
:1014200049D5A6D0D4C05AF1D5C059F1D6C060F183
:10143000D7C05FF15AC166F159C165F1D6C068F1F4
:10144000D7C067F1EBDD01C05DF101015D5310E034
:10145000D0C05FF1616BD2C060F15DC162F100018B
:1014600002EC05F0796B5DC178F08D6B11D0010154
:10147000D6C060F1D7C05FF1D0C061F15AC163F14D
:1014800059C162F1D6C065F1D7C064F1000129D716
:101490006FD0D4C05AF1D5C059F1D6C05CF1D7C0D5
:1014A0005BF101015E6B5C5303E15B515E5D41E208
:1014B0005E5159255F6F000E5A21606FD8905E35DE
:1014C000050F036AD40FE96E000E0320EA6EEFCF1A
:1014D00061F1D8905E35060F036AD40FE96E000EF5
:1014E0000320EA6EEFCF62F161C164F162C163F182
:1014F00060C166F15FC165F161C168F162C167F108
:1015000000018CDD01C05DF101015D5310E0D0C030
:101510005FF1616BD2C060F15DC162F1000102EC6C
:1015200005F0796B5DC178F08D6B010102D05E2B07
:10153000BAD75D530CE1D0C05FF15AC161F159C116
:1015400060F15CC163F15BC162F10001EED60001A4
:101550000FD0D0C05FF10101616BD2C060F1010E0C
:10156000626F000102EC05F0796B010E786F8D6BF4
:10157000826B816B0AD0763D03D0773D01D003D0DA
:10158000762BD8B4772B0A0E8D6FBFEF0BF0F86A6D
:10159000D09E078EEA6AE96A1A6AB886440EAF6E70
:1015A000000EB06EA60EAC6E900EAB6ECC91CD6BF5
:1015B0000101536B556B546B576B566B000E7E6E6F
:1015C000C190C192C194C1967F6E6B6A6D6AD05012
:1015D0000F0BD0A8000ED080D082D088D886D888B3
:1015E000586F00017DEF02F01C0EF66E040EF76ED0
:1015F0000A0E0101596F0001C5EC02F02C0EF66EC7
:10160000040EF76EDAEC02F00D0E9EA8FED7AD6E5A
:101610000A0E9EA8FED7AD6E360EF66E040EF76E5D
:10162000120E0101596F0001C5EC02F058C159F1C9
:101630001B0E01015A6F000101EC03F0200E9EA861
:10164000FED7AD6E01015851070A00010DE00C0AEA
:1016500012E0040A17E0030A1CE0020A21E00D0A66
:1016600026E0030A2BE031D04C0EF66E040EF76E26
:10167000DAEC02F030D0580EF66E040EF76EDAECAB
:1016800002F029D0680EF66E040EF76EDAEC02F066
:1016900022D0760EF66E040EF76EDAEC02F01BD056
:1016A000860EF66E040EF76EDAEC02F014D0980E89
:1016B000F66E040EF76EDAEC02F00DD0A80EF66EA0
:1016C000040EF76EDAEC02F006D0BA0EF66E040ED7
:1016D000F76EDAEC02F0C40EF66E040EF76EDAEC7A
:1016E00002F09DEF03F01B50800802E284EC03F04F
:1016F000F40E8D6FAB8EAB88C8EF03F00101586B11
:1017000058511D0806E30001CFEC03F00101582BEE
:10171000F7D727C083F0C80EF66E040EF76E0A0ED8
:10172000596F0001C5EC02F0F00EF66E040EF76E74
:10173000DAEC02F0D40EF66E040EF76E170E01010D
:10174000596F0001C5EC02F01BC059F11B0E0101DD
:101750005A6F000101EC03F00D0E9EA8FED7AD6E8E
:101760000A0E9EA8FED7AD6E040090A502D0FFEF32
:1017700003F090A103D09091CFEC03F0FAD5CBA168
:1017800007D0CB919D9A510E006E002EFED79D88FA
:10179000CBA307D0CB93510E006E002EFED7C2EC28
:0617A00003F0E2D7030094
:020000040030CA
:0E00000000281E190000890003C003E0034021
:00000001FF
;PIC18F14K22
;CRC=099C  CREATED="22-Feb-16 09:43"
