:040000006FEF0AF0A4
:08000800046ED8CF05F0E0CF33
:1000100006F00001E9CF0CF0EACF07F0E1CF08F0DD
:10002000E2CF09F0D9CF0AF0DACF0BF0F3CF12F01C
:10003000F4CF13F0FACF14F0F5CF15F0F6CF16F099
:10004000F7CF17F000C00EF001C00FF002C010F0A3
:1000500003C011F0F2AA30EF00F0F2B483EF01F028
:100060009DA236EF00F09EB29BEF01F09DAA3CEFFF
:1000700000F09EBAD9EF01F09DA842EF00F09EB8C3
:10008000A4EF01F00EC000F00FC001F010C002F0AC
:1000900011C003F00CC0E9FF07C0EAFF078E08C0DB
:1000A000E1FF09C0E2FF0AC0D9FF0BC0DAFF12C0AE
:1000B000F3FF13C0F4FF14C0FAFF15C0F5FF16C01C
:1000C000F6FF17C0F7FF045006C0E0FF05C0D8FFD9
:1000D0001000F76AE20FF66E000EF7220900F550E5
:1000E000120000C1814001C0804101C0804100C1B7
:1000F000814001C0804100C1814000C1814001C0F8
:10010000804101C0804100C1814000C1814001C0E7
:10011000804100C1814001C0804101C0804100C1D7
:10012000814001C0804100C1814000C1814001C0C7
:10013000804100C1814001C0804101C0804100C1B7
:10014000814000C1814001C0804101C0804100C1A7
:10015000814001C0804100C1814000C1814001C097
:10016000804101C0804100C1814000C1814001C087
:10017000804100C1814001C0804101C0804100C177
:10018000814000C1814001C0804101C0804100C167
:10019000814001C0804100C1814000C1814001C057
:1001A000804100C1814001C0804101C0804100C147
:1001B000814001C0804100C1814000C1814001C037
:1001C000804101C0804100C1814000C1814001C027
:1001D000804100C1814001C0804101C0804100C117
:1001E0008140F76AF20FF66E010EF7220900F55012
:1001F000120000C0C101C30302C2C60607C705C57D
:10020000C404CC0C0DCD0FCFCE0E0ACACB0BC9093E
:1002100008C8D81819D91BDBDA1A1EDEDF1FDD1D4E
:100220001CDC14D4D515D71716D6D21213D311D17E
:10023000D010F03031F133F3F23236F6F737F535CE
:1002400034F43CFCFD3DFF3F3EFEFA3A3BFB39F9FE
:10025000F83828E8E929EB2B2AEAEE2E2FEF2DEDCE
:10026000EC2CE42425E527E7E62622E2E323E1213E
:1002700020E0A06061A163A3A26266A6A767A5654E
:1002800064A46CACAD6DAF6F6EAEAA6A6BAB69A9BE
:10029000A86878B8B979BB7B7ABABE7E7FBF7DBDCE
:1002A000BC7CB47475B577B7B67672B2B373B171FE
:1002B00070B05090915193535292965657975595CE
:1002C00094549C5C5D9D5F9F9E5E5A9A9B5B99597E
:1002D0005898884849894B8B8A4A4E8E8F4F8D4D4E
:1002E0004C8C4484854587474686824243834181BE
:1002F0008040F29A0101F75304E0D76AD66AF2947B
:10030000F28A00011200CD5102080AE1CE5308E141
:10031000CF5306E1CCB104D0020ED15FCC8101D025
:10032000CC91CF69CE69CD6B0101F76B0001E1DFA4
:10033000F29442EF00F090859E9242EF00F09EA86A
:10034000FED7AD6EB7EF01F0C951CA5D03E3CB83B1
:100350009D980ED0036ACA51910FE96E000E0320DA
:10036000EA6EEFCFF6F10101F6510001E8D7CA2B92
:100370009E9842EF00F09EAAFED7ABCF1AF0AECF08
:1003800001F01AA202D0AB98AB881200CF51010144
:10039000F719F86F036AF85100019BDE016ECE5128
:1003A0000118CF6F036A0101F85100011ADFCE6F07
:1003B0001200E1DF01C0F6F1892BD8B48A2BCCB151
:1003C00028D0CD5308E1CF69CE69F6C1D0F0CD2B4E
:1003D000D16BD36B16D0CD2D04D0F6C1D2F0CD2B7E
:1003E00010D0CD5102080DE1D13D02D0FE0ED16FEB
:1003F000D40ED125E96EEA6AD8B0EA2AF6C1EFFF39
:10040000D12BF6C1F7F1C2DF010E0101F76F000138
:1004100070DF9E9A42EF00F023207063506F776583
:10042000722025730D0A000030392D4A616E2D317E
:1004300036002320726573746172745F6361757333
:100440006528293D257520005744545F54494D4582
:100450004F5554004D434C525F46524F4D5F534CE5
:10046000454550004D434C525F46524F4D5F5255EB
:100470004E004E4F524D414C5F504F5745525F55C5
:10048000500042524F574E4F55545F5245535441BE
:10049000525400005744545F46524F4D5F534C45F1
:1004A0004550000052455345545F494E53545255F0
:1004B0004354494F4E00756E6B6E6F776E2100008E
:1004C0000D0A000023207063506F7765722025733A
:1004D00020636F6E6669672E6D6F646275735F610E
:1004E0006464726573733D25750D0A0030392D4AB9
:1004F000616E2D313600700ED36E9B9C9B9EC0505A
:10050000C00B0509C06EC08EC280100E7E6EC190F9
:10051000C192C194C196000E7F6E900EBA6E3F0ECE
:10052000776EF19E5F0E786EF19E8D6B8F6B020E73
:100530008E6F909190939095C96BCA6BCB91CB9332
:10054000746B736B766B756B786B776B7A6B796B9F
:100550007C6B7B6B7E6B7D6B726B7F6B816B806B5F
:100560008B6B8C6B2FC084F02EC083F02BC086F079
:100570002AC085F0886B876B000E0609CA6EF90EDB
:10058000CB6E9D829CEF0AF00900F6CFDAF1F7CF2F
:10059000DBF1F5509EA8FED7AD6EDAC1F6FFDBC1E8
:1005A000F7FF0101D92F01D002D00001EDD70001E2
:1005B00012000900F5520DE0F6CFD9F1F7CFDAF1CC
:1005C000F5509EA8FED7AD6ED9C1F6FFDAC1F7FF90
:1005D000F0D712000101DC51016ADB5D03E2DBC1EF
:1005E00000F00CD0006A080EDD6FDB370036DC51FE
:1005F000005CD8B0006E0136DD2FF7D70001120085
:100600000150D9C1DBF1640E0101DC6F0001E2DFB2
:1006100000C0D9F10150300E08E10101DAA30ED07B
:10062000DAB70CD0DAB9200E04D00101DA97DA99E2
:10063000DA81012601509EA8FED7AD6ED9C1DBF14B
:100640000A0EDC6F0001C6DF00C0D9F10150300E88
:1006500008E10101DAB70BD0DAA109D0DAB9200E2E
:100660000001012601509EA8FED7AD6E0101300E9B
:10067000D927D9519EA8FED7AD6E00011200010105
:10068000E26BE1C103F0E051D8B4E107E007E36FAA
:1006900003C0E4F1E35302E1E45330E0DFC103F0CF
:1006A000DE51E96E03C0EAFFDD51036EDC51DC2B45
:1006B000D8B4DD2BE56F03C0E6F1F2CFE7F1F29E8F
:1006C000E5C1A9FFA69CA69EA680A850E7BFF28E12
:1006D000EF6EDFC103F0DE51E96E03C0EAFFEFCF3A
:1006E000E3F1E2C1F4F1E3C1F5F1F451F519016E62
:1006F00001C0E2F1DE2BD8B4DF2BC3D7E2C101F099
:100700000001AAEF03F0960E8D6F800E1B6E500E47
:100710001D6E260E1F6E930E1E6E216A140E206E25
:10072000226A020E246E760E236E266A020E256E53
:10073000276A12000101DB6B1B0EDA6FDD6B020E04
:10074000DC6FDBC1DFF1DAC1DEF1E16B170EE06FC8
:10075000000195D701C0D9F1F2CFDAF1F29EA96A72
:10076000A69CA69EA680A8500101DABFF28ED95D94
:1007700003E00001C8DF010100011BEF0BF09EAA9E
:1007800002D0F9DDFCD79D8A1200F9DFC20ED56ECA
:10079000C00EF21226EF0BF0722B72510F0801E21D
:1007A000726B100E016EC250C30B0110C26ED89056
:1007B0007235036A320FE96E000E0320EA6EC282C0
:1007C000C2B2FED7C3CFEFFFC4CFECFF3C0E016E29
:1007D000C250C30B0110C26ED8907235036A520F1B
:1007E000E96E000E0320EA6EC282C2B2FED7C3CF0A
:1007F000EFFFC4CFECFF120090958D5303E1949C62
:100800008B9C03D0949C8B8C8D077D3D03D07E3DCB
:1008100001D003D07D2BD8B47E2B0101D62BD8B4C8
:10082000D72BD651E80844E1D751030841E1D76BF3
:10083000D66B0001803D03D0813D01D003D0802BD9
:10084000D8B4812B235202E124520FE02450815D61
:100850000CE303E18051235C08E28E5306E18F53E1
:1008600004E126C08FF025C08EF08E5305E18F5332
:1008700003E194988B880CD094988B988E51D8B4BF
:100880008F078E078E5304E18F5302E1816B806BDB
:100890000101D32BD3513C080BE1D36B00017B3D0D
:1008A00003D07C3D01D003D07B2BD8B47C2B01013D
:1008B000000190A304D090930101D56BD46B01018A
:1008C000D42BD8B4D52B2050D45D08E12150D55D70
:1008D00005E1D56BD46B000190810101000161EF4E
:1008E0000BF0CCB104D0000E016E0AD006D0D2AF0E
:1008F00004D0D4C0D3F0010ED16FCC91010E016EA3
:1009000065EF09F00101E1511F080CE1E2514E08C9
:1009100009E1E351200806E1E4514E0803E1010E2C
:10092000016E2ED0E25102080FE2FF0A03E1E1510D
:10093000E7080AE2E451030807E303E1E351F6089C
:1009400003E3010E016E1CD0E25106080FE2FF0A1C
:1009500003E1E151CF080AE2E451090807E303E1AA
:10096000E351D10803E3010E016E0AD0E45306E11E
:10097000E351370803E3010E016E02D0000E016E51
:1009800000019CEF09F0036AC951910FE96E000E56
:100990000320EA6EEBC1EFFFC92B196AF2BE198E74
:1009A000F29EEBC1F7F1F2DC19BEF28E1200C96BB8
:1009B000CA6BCF69CE69CC91E9C1EBF1E4DFEAC142
:1009C000EBF1E1DF1200CFC0EAF1CEC0E9F1EAC1FC
:1009D000EBF1D9DFE9C1EBF1D6DFCF69CE69CB818D
:1009E00012000101E0518009E36FE1C1E4F1DFC1D0
:1009F000E9F1EA6F0001DBDFE2C1EBF1C4DFE3DF25
:100A000012000101ED51200DF350036A320F016E07
:100A1000000E032201C0F1F103C0F2F1EF6BEE6BA7
:100A2000F06BF0510F0811E3D890F035036AF1250F
:100A3000E96EF2510320EA6EECCF03F0ED52EF5075
:100A4000EE270350EF23F02BECD7080EEE25F36FC3
:100A5000000EEF21F46FF431036EF331026E0332B6
:100A6000023203320232033202320F0E031602C088
:100A700001F003C002F000011200746B736B766B1F
:100A8000756B786B776BD2EF06F00101EC510608BD
:100A900026E2FF0A03E1EB51CF0821E2EC510908FD
:100AA0001EE303E1EB51CF081AE3D00EEB5DED6FCF
:100AB000070EEC59EE6F800EED27000EEE23F2CFFD
:100AC000EFF1F29EEDC1A9FFA69CA69EA680A850BC
:100AD000EFBFF28E036A016E0350026EC3D1EB5179
:100AE000006EEC51036E035005E100520001D8B4D2
:100AF000D6D00101035006E1010E005C0001D8B41C
:100B0000E0D00101035006E1020E005C0001D8B400
:100B1000E3D00101035006E1030E005C0001D8B4EC
:100B2000EDD00101035006E1040E005C0001D8B4D1
:100B3000F1D00101035006E1050E005C0001D8B4BC
:100B4000F4D00101035006E1060E005C0001D8B4A8
:100B5000F8D00101035006E1070E005C0001D8B493
:100B6000F7D00101035006E1080E005C0001D8B483
:100B7000F6D00101035006E1090E005C0001D8B473
:100B8000F5D00101035006E10A0E005C0001D8B463
:100B9000F3D00101035006E10B0E005C0001D8B454
:100BA000F2D00101035006E10C0E005C0001D8B444
:100BB000F1D00101035006E10D0E005C0001D8B434
:100BC000F0D00101030E035C06E1E80E005C0001B9
:100BD000D8B4EED00101030E035C06E1E90E005C1F
:100BE0000001D8B4EDD00101030E035C06E1EA0E6A
:100BF000005C0001D8B4EBD00101030E035C06E1F8
:100C0000EB0E005C0001D8B4E9D00101030E035CD7
:100C100006E1EC0E005C0001D8B4E7D00101030E40
:100C2000035C06E1ED0E005C0001D8B4E5D00101E3
:100C3000030E035C06E1EE0E005C0001D8B4E2D0C6
:100C40000101030E035C06E1EF0E005C0001D8B465
:100C5000E1D00101030E035C06E1F00E005C00012F
:100C6000D8B4DFD00101030E035C06E1F10E005C95
:100C70000001D8B4DED00101030E035C06E1F20EE0
:100C8000005C0001D8B4DCD00101030E035C06E176
:100C9000F30E005C0001D8B4DAD00101DFD0D890A7
:100CA0007235036A320FE96E000E0320EA6EECCF54
:100CB00003F0ED52EFCF01F003C002F00101D2D0FA
:100CC00000010101ED6B00019CDE0150016E02503C
:100CD000026E0101C7D00001D8907235036A520F2D
:100CE000E96E000E0320EA6EECCF03F0ED52EF50F8
:100CF000016E0350026E0101B5D00001010E010129
:100D0000ED6F00017EDE0150016E0250026E0101A6
:100D1000A9D000019388000E81B8010E036A016E0C
:100D20000350026E01019ED000017A51036E795189
:100D3000792BD8B47A2B016E0350026E010192D048
:100D400000017D51016E7E51026E01018BD00001C8
:100D50007B51016E7C51026E010184D000018051F3
:100D6000016E8151026E01017DD00001000E016E05
:100D7000026E010177D000017351016E7451026E51
:100D8000010170D000017551016E7651026E0101B2
:100D900069D000017751016E7851026E010162D075
:100DA00000016BD6000E016E026E01015BD00001E6
:100DB000036A1D50016E0350026E010153D0000101
:100DC0001E50016E1F50026E01014CD00001500EEA
:100DD000016E000E026E010145D00001430E016E4E
:100DE000000E026E01013ED00001500E016E000E99
:100DF000026E010137D00001000E016E026E01018A
:100E000031D00001036A1B50016E0350026E0101D4
:100E100029D000012050016E2150026E010122D024
:100E20000001036A2250016E0350026E01011AD0C4
:100E300000012350016E2450026E010113D0000105
:100E40002550016E2650026E01010CD00001036A8C
:100E50002750016E0350026E010104D0FF0E016E97
:100E6000026E00D0000159EF07F0E0C1E9F1DFC1E7
:100E7000EAF19DDDD8900101E335E96FE435EA6FD1
:100E8000E9C1EBF100017FDD0101E66BE56BE651A5
:100E9000E45D22E303E1E351E55D1EE2E551E12576
:100EA000E96FE651E221EA6FEC6FE9C1EBF1000175
:100EB000ECD502C0E8F101C0E7F1E8C1E9F1E8C111
:100EC000EBF161DDE7C1E9F1E7C1EBF15CDD0101C7
:100ED000E52BD8B4E62BDBD7000175DDBBEF09F0BD
:100EE0000101F26BF1C103F0F051D8B4F107F00742
:100EF000F36F03C0F4F1F35302E1F4533CE0EFC1AC
:100F000003F0EE51E96E03C0EAFFEFCFF3F1F2C157
:100F1000F4F1F3C1F5F1F451F519016E01C0F2F1EC
:100F2000ED51036EEC51EC2BD8B4ED2BF36F03C0F5
:100F3000F4F1EF51036EEE51EE2BD8B4EF2BE96EC6
:100F400003C0EAFFEFCFF5F1F3C1A9FFF5C1A8FF98
:100F5000A69CA69EA684F250006EF29E0F01550E2E
:100F6000A76EAA0EA76EA682A6B2FED7A6940050C0
:100F7000F2120101B7D7F2C101F00001D0EF07F082
:100F80000101EB6B1B0EEA6FED6B020EEC6FEBC118
:100F9000EFF1EAC1EEF1F16B170EF06F0001A0D78F
:100FA00001C0E9F1A96AE9C1A8FFA69CA69EA68492
:100FB000F250006EF29E0F01550EA76EAA0EA76E9C
:100FC000A682A6B2FED7A6940050F212010117EF36
:100FD00009F00101E65106083AE2FF0A03E1E55192
:100FE000CF0835E2E651090832E303E1E551CF08C5
:100FF0002EE3E851000808E2FF0A03E1E751000888
:1010000003E2030E016E15D1D00EE55DE96F070E08
:10101000E659EA6F800EE927000EEA23E9C1A9FF2D
:10102000E7C1A8FFA69CA69EA684F250006EF29E81
:101030000F01550EA76EAA0EA76EA682A6B2FED706
:10104000A6940050F212000E016E0101F2D00001D0
:101050007F531BE00101E551E80809E1E65103086F
:1010600006E1E7C11DF0000E016EE3D00DD0E551A1
:10107000E9080AE1E651030807E1E8C11FF0E7C10A
:101080001EF0000E016ED5D000010101E551006E89
:10109000E651036E030E035C05E1EE0E005C0001F9
:1010A0004EE00101030E035C05E1EF0E005C000160
:1010B00052E00101030E035C05E1F00E005C00014B
:1010C00051E00101030E035C05E1F10E005C00013B
:1010D00055E00101030E035C05E1F20E005C000126
:1010E00053E00101030E035C05E1F30E005C000117
:1010F00058E00101070E035C06E1CD0E005C000123
:10110000D8B45BD00101070E035C06E1CE0E005C93
:101110000001D8B45CD00101070E035C06E1CF0EDC
:10112000005C0001D8B460D001014E0E035C06E102
:101130001F0E005C0001D8B463D0010175D001011D
:10114000E85303E1E751800803E2030E016E71D01A
:10115000E7C11BF06CD09083E8C121F0E7C120F01B
:10116000010165D00101E85303E1E751010803E201
:10117000030E016E5ED0E7C122F059D0E8C124F021
:10118000E7C123F0010153D00101E75305E1E85322
:1011900003E1030E016E4DD0E8C126F0E7C125F052
:1011A00046D00101E85303E1E751010803E2030ED1
:1011B000016E3FD0E7C127F03AD00101E72D02D000
:1011C000E85303E0030E016E34D0FF00000101017B
:1011D000E72D02D0E85303E0030E016E2AD0000190
:1011E00083EC03F0010123D00101E72D02D0E85385
:1011F00003E0030E016E1DD00001C2D6010117D01D
:101200000101E7510A0803E1E851070806E000017F
:101210007F6B030E016E01010CD0010E00017F6F88
:10122000C80E8D6F010103D0020E016E02D0000EB8
:10123000016E00011200E1C1E9F1060E0101EA6F41
:101240000001D7EC04F0E3C1E6F1E3C1EBF1C3EC3C
:1012500004F0E2C1E6F1E2C1EBF1C3EC04F0E5C158
:10126000E6F1E5C1EBF1C3EC04F0E4C1E6F1E4C161
:10127000EBF1C3EC04F0E3EC04F0F2EF09F0DFC1B2
:10128000E9F1100E0101EA6F0001D7EC04F0E1C1B1
:10129000E4F1E1C1EBF1C3EC04F0E0C1E4F1E0C141
:1012A000EBF1C3EC04F0E3C1E4F1E3C1EBF1C3EC17
:1012B00004F0E2C1E4F1E2C1EBF1C3EC04F0E3ECD1
:1012C00004F04FEF0AF071EF04F00152D8B405D1E9
:1012D0001B50800804E01B50D05DD8A4F4D0733DAF
:1012E00003D0743D01D003D0732BD8B4742B140EEB
:1012F0008D6FD251030A07E0070A05E0020A3CE0BD
:10130000160A71E0CED0D4C0DAF1D5C0D9F1D6C07A
:10131000DCF1D7C0DBF10101DB51D925DF6FDC51F6
:10132000DA21E06FDAC1E2F1D9C1E1F1E46FDFC1A6
:10133000E3F1000182EF04F0015210E1D0C0DFF1CF
:101340000101E16BD2C0E0F1020EE26F0001F1ECAD
:1013500004F0786B020E776F8D6B0DD0D2C0DFF189
:10136000D0C0E0F1DAC1E2F1D9C1E1F1DCC1E4F1D0
:10137000DBC1E3F17AD5A4D0D4C0DAF1D5C0D9F17C
:10138000D6C0E0F1D7C0DFF1DAC1E6F1D9C1E5F1AD
:10139000D6C0E8F1D7C0E7F11CDE01C0DDF10101E4
:1013A000DD5310E0D0C0DFF1E16BD2C0E0F1DDC170
:1013B000E2F10001F1EC04F0786BDDC177F08D6BA8
:1013C00011D00101D6C0E0F1D7C0DFF1D0C0E1F10A
:1013D000DAC1E3F1D9C1E2F1D6C0E5F1D7C0E4F159
:1013E000000129D76DD0D4C0DAF1D5C0D9F1D6C06B
:1013F000DCF1D7C0DBF10101DE6BDC5303E1DB5133
:10140000DE5D3FE2DE51D925DF6F000EDA21E06FAD
:10141000D890DE35050FD40FE96EEA6AD8B0EA2A13
:10142000EFCFE1F1D890DE35060FD40FE96EEA6A0E
:10143000D8B0EA2AEFCFE2F1E1C1E4F1E2C1E3F191
:10144000E0C1E6F1DFC1E5F1E1C1E8F1E2C1E7F1B8
:101450000001BFDD01C0DDF10101DD5310E0D0C0AE
:10146000DFF1E16BD2C0E0F1DDC1E2F10001F1ECAE
:1014700004F0786BDDC177F08D6B010102D0DE2BBB
:10148000BCD7DD530CE1D0C0DFF1DAC1E1F1D9C145
:10149000E0F1DCC1E3F1DBC1E2F10001F0D60001D3
:1014A0000FD0D0C0DFF10101E16BD2C0E0F1010E3D
:1014B000E26F0001F1EC04F0786B010E776F8D6B39
:1014C000816B806B0AD0753D03D0763D01D003D08F
:1014D000752BD8B4762B0A0E8D6F67EF0BF0F86A78
:1014E000D09E078EEA6AE96A1A6AB886440EAF6E21
:1014F000000EB06EA60EAC6E900EAB6ECC91CD6BA6
:101500000101D36BD56BD46BD76BD66B000E7E6E9F
:10151000C190C192C194C1967F6E6B6A6D6AD050C2
:101520000F0BD0A8000ED080D082D088D886D88863
:10153000D86F00017BEF02F0180EF66E040EF76E06
:101540000A0E0101D96F0001C4EC02F0280EF66EFC
:10155000040EF76ED9EC02F00D0E9EA8FED7AD6E0C
:101560000A0E9EA8FED7AD6E320EF66E040EF76E12
:10157000120E0101D96F0001C4EC02F0D8C1D9F1FB
:101580001B0E0101DA6F000100EC03F0200E9EA893
:10159000FED7AD6E0101D851070A00010DE00C0A1B
:1015A00012E0040A17E0030A1CE0020A21E00D0A17
:1015B00026E0030A2BE031D0480EF66E040EF76EDB
:1015C000D9EC02F030D0540EF66E040EF76ED9EC62
:1015D00002F029D0640EF66E040EF76ED9EC02F01C
:1015E00022D0720EF66E040EF76ED9EC02F01BD00C
:1015F000820EF66E040EF76ED9EC02F014D0940E43
:10160000F66E040EF76ED9EC02F00DD0A40EF66E55
:10161000040EF76ED9EC02F006D0B60EF66E040E8C
:10162000F76ED9EC02F0C00EF66E040EF76ED9EC30
:1016300002F09AEF03F01B50800802E283EC03F003
:10164000F40E8D6FAB8EAB88C5EF03F00101D86B44
:10165000D8511D0806E30001CCEC03F00101D82BA2
:10166000F7D727C082F0C40EF66E040EF76E0A0E8E
:10167000D96F0001C4EC02F0EC0EF66E040EF76EAA
:10168000D9EC02F0D00EF66E040EF76E170E0101C3
:10169000D96F0001C4EC02F01BC0D9F11B0E01018F
:1016A000DA6F000100EC03F00D0E9EA8FED7AD6EC0
:1016B0000A0E9EA8FED7AD6E040090A502D0FCEFE6
:1016C00003F090A103D09091CCEC03F0FCD5CBA11A
:1016D00007D0CB919D9A510E006E002EFED79D88AB
:1016E000CBA307D0CB93510E006E002EFED7BFECDC
:0616F00003F0E2D7030045
:020000040030CA
:0E00000000281E190000890003C003E0034021
:00000001FF
;PIC18F14K22
;CRC=D370  CREATED="09-Jan-16 21:32"
