:04000000C2EF0AF051
:08000800046ED8CF05F0E0CF33
:1000100006F00001E9CF0CF0EACF07F0E1CF08F0DD
:10002000E2CF09F0D9CF0AF0DACF0BF0F3CF12F01C
:10003000F4CF13F0FACF14F0F5CF15F0F6CF16F099
:10004000F7CF17F000C00EF001C00FF002C010F0A3
:1000500003C011F0F2AA30EF00F0F2B483EF01F028
:100060009DA236EF00F09EB29BEF01F09DAA3CEFFF
:1000700000F09EBAD9EF01F09DA842EF00F09EB8C3
:10008000A4EF01F00EC000F00FC001F010C002F0AC
:1000900011C003F00CC0E9FF07C0EAFF078E08C0DB
:1000A000E1FF09C0E2FF0AC0D9FF0BC0DAFF12C0AE
:1000B000F3FF13C0F4FF14C0FAFF15C0F5FF16C01C
:1000C000F6FF17C0F7FF045006C0E0FF05C0D8FFD9
:1000D0001000F76AE20FF66E000EF7220900F550E5
:1000E000120000C1814001C0804101C0804100C1B7
:1000F000814001C0804100C1814000C1814001C0F8
:10010000804101C0804100C1814000C1814001C0E7
:10011000804100C1814001C0804101C0804100C1D7
:10012000814001C0804100C1814000C1814001C0C7
:10013000804100C1814001C0804101C0804100C1B7
:10014000814000C1814001C0804101C0804100C1A7
:10015000814001C0804100C1814000C1814001C097
:10016000804101C0804100C1814000C1814001C087
:10017000804100C1814001C0804101C0804100C177
:10018000814000C1814001C0804101C0804100C167
:10019000814001C0804100C1814000C1814001C057
:1001A000804100C1814001C0804101C0804100C147
:1001B000814001C0804100C1814000C1814001C037
:1001C000804101C0804100C1814000C1814001C027
:1001D000804100C1814001C0804101C0804100C117
:1001E0008140F76AF20FF66E010EF7220900F55012
:1001F000120000C0C101C30302C2C60607C705C57D
:10020000C404CC0C0DCD0FCFCE0E0ACACB0BC9093E
:1002100008C8D81819D91BDBDA1A1EDEDF1FDD1D4E
:100220001CDC14D4D515D71716D6D21213D311D17E
:10023000D010F03031F133F3F23236F6F737F535CE
:1002400034F43CFCFD3DFF3F3EFEFA3A3BFB39F9FE
:10025000F83828E8E929EB2B2AEAEE2E2FEF2DEDCE
:10026000EC2CE42425E527E7E62622E2E323E1213E
:1002700020E0A06061A163A3A26266A6A767A5654E
:1002800064A46CACAD6DAF6F6EAEAA6A6BAB69A9BE
:10029000A86878B8B979BB7B7ABABE7E7FBF7DBDCE
:1002A000BC7CB47475B577B7B67672B2B373B171FE
:1002B00070B05090915193535292965657975595CE
:1002C00094549C5C5D9D5F9F9E5E5A9A9B5B99597E
:1002D0005898884849894B8B8A4A4E8E8F4F8D4D4E
:1002E0004C8C4484854587474686824243834181BE
:1002F0008040F29A0101F75304E0D76AD66AF2947B
:10030000F28A00011200CD5102080AE1CE5308E141
:10031000CF5306E1CCB104D0020ED15FCC8101D025
:10032000CC91CF69CE69CD6B0101F76B0001E1DFA4
:10033000F29442EF00F090859E9242EF00F09EA86A
:10034000FED7AD6EB7EF01F0C951CA5D03E3CB83B1
:100350009D980ED0036ACA51910FE96E000E0320DA
:10036000EA6EEFCFF6F10101F6510001E8D7CA2B92
:100370009E9842EF00F09EAAFED7ABCF1AF0AECF08
:1003800001F01AA202D0AB98AB881200CF51010144
:10039000F719F86F036AF85100019BDE016ECE5128
:1003A0000118CF6F036A0101F85100011ADFCE6F07
:1003B0001200E1DF01C0F6F18A2BD8B48B2BCCB14F
:1003C00028D0CD5308E1CF69CE69F6C1D0F0CD2B4E
:1003D000D16BD36B16D0CD2D04D0F6C1D2F0CD2B7E
:1003E00010D0CD5102080DE1D13D02D0FE0ED16FEB
:1003F000D40ED125E96EEA6AD8B0EA2AF6C1EFFF39
:10040000D12BF6C1F7F1C2DF010E0101F76F000138
:1004100070DF9E9A42EF00F023207063506F776583
:10042000722025730D0A000032312D4665622D3190
:1004300036002320726573746172745F6361757333
:100440006528293D257520005744545F54494D4582
:100450004F5554004D434C525F46524F4D5F534CE5
:10046000454550004D434C525F46524F4D5F5255EB
:100470004E004E4F524D414C5F504F5745525F55C5
:10048000500042524F574E4F55545F5245535441BE
:10049000525400005744545F46524F4D5F534C45F1
:1004A0004550000052455345545F494E53545255F0
:1004B0004354494F4E00756E6B6E6F776E2100008E
:1004C0000D0A000023207063506F7765722025733A
:1004D00020636F6E6669672E6D6F646275735F610E
:1004E0006464726573733D25750D0A0032312D46C3
:1004F00065622D313600700ED36E9B9C9B9EC05062
:10050000C00B0509C06EC08EC280100E7E6EC190F9
:10051000C192C194C196000E7F6E900EBA6E3F0ECE
:10052000776EF19E5F0E786EF19E8D6B8F6B020E73
:100530008E6F909190939095C96BCA6BCB91CB9332
:10054000756B746B776B766B796B786B7B6B7A6B97
:100550007D6B7C6B7F6B7E6B736B806B826B816B57
:100560002FC085F02EC084F02BC087F02AC086F003
:10057000896B886B000E0609CA6EF90ECB6E9D82E0
:10058000EFEF0AF00900F6CFDAF1F7CFDBF1F55023
:100590009EA8FED7AD6EDAC1F6FFDBC1F7FF010101
:1005A000D92F01D002D00001EDD7000112000900BF
:1005B000F5520DE0F6CFD9F1F7CFDAF1F5509EA85C
:1005C000FED7AD6ED9C1F6FFDAC1F7FFF0D7120042
:1005D0000101DC51016ADB5D03E2DBC100F00CD0FC
:1005E000006A080EDD6FDB370036DC51005CD8B0E6
:1005F000006E0136DD2FF7D7000112000150D9C17E
:10060000DBF1640E0101DC6F0001E2DF00C0D9F113
:100610000150300E08E10101DAA30ED0DAB70CD098
:10062000DAB9200E04D00101DA97DA99DA810126CD
:1006300001509EA8FED7AD6ED9C1DBF10A0EDC6F6A
:100640000001C6DF00C0D9F10150300E08E1010100
:10065000DAB70BD0DAA109D0DAB9200E00010126F1
:1006600001509EA8FED7AD6E0101300ED927D95199
:100670009EA8FED7AD6E000112000101E26BE1C140
:1006800003F0E051D8B4E107E007E36F03C0E4F101
:10069000E35302E1E45330E0DFC103F0DE51E96EE1
:1006A00003C0EAFFDD51036EDC51DC2BD8B4DD2B37
:1006B000E56F03C0E6F1F2CFE7F1F29EE5C1A9FFD5
:1006C000A69CA69EA680A850E7BFF28EEF6EDFC163
:1006D00003F0DE51E96E03C0EAFFEFCFE3F1E2C1C0
:1006E000F4F1E3C1F5F1F451F519016E01C0E2F145
:1006F000DE2BD8B4DF2BC3D7E2C101F00001AAEF93
:1007000003F0960E8D6F800E1B6E500E1D6E260E22
:100710001F6E930E1E6E216A140E206E226A020E48
:10072000246E760E236E266A020E256E276A010E4F
:10073000326E12000101DB6B1B0EDA6FDD6B020EF5
:10074000DC6FDBC1DFF1DAC1DEF1E16B180EE06FC7
:10075000000193D701C0D9F1F2CFDAF1F29EA96A74
:10076000A69CA69EA680A8500101DABFF28ED95D94
:1007700003E00001C6DF010100016EEF0BF09EAA4D
:1007800002D0F9DDFCD79D8A1200F9DFC20ED56ECA
:10079000C00EF21279EF0BF0732B73510F0801E2C8
:1007A000736B100E016EC250C30B0110C26ED89055
:1007B0007335036A330FE96E000E0320EA6EC282BE
:1007C000C2B2FED7C3CFEFFFC4CFECFF3C0E016E29
:1007D000C250C30B0110C26ED8907335036A530F19
:1007E000E96E000E0320EA6EC282C2B2FED7C3CF0A
:1007F000EFFFC4CFECFF12009095938881A802D040
:10080000010E8C6F32A205D08C5303E0949E8B8E28
:1008100002D0949E8B9E8D5303E1949C8B9C03D0BD
:10082000949C8B8C8D077E3D03D07F3D01D003D0FF
:100830007E2BD8B47F2B0101D62BD8B4D72BD65121
:10084000E80844E1D751030841E1D76BD66B0001BA
:10085000813D03D0823D01D003D0812BD8B4822BBF
:10086000235202E124520FE02450825D0CE303E1A5
:100870008151235C08E28E5306E18F5304E126C0C8
:100880008FF025C08EF08E5305E18F5303E19498CD
:100890008B880CD094988B988E51D8B48F078E0784
:1008A0008E5304E18F5302E1826B816B0101D32BE4
:1008B000D3513C080BE1D36B00017C3D03D07D3D5F
:1008C00001D003D07C2BD8B47D2B0101000190A373
:1008D00004D090930101D56BD46B0101D42BD8B413
:1008E000D52B2050D45D08E12150D55D05E1D56BB5
:1008F000D46B0001908101010001B4EF0BF0CCB189
:1009000004D0000E016E0AD006D0D2AF04D0D4C0FD
:10091000D3F0010ED16FCC91010E016EB8EF09F04A
:100920000101E1511F080CE1E2514E0809E1E351D8
:10093000200806E1E4514E0803E1010E016E2ED0BD
:10094000E25102080FE2FF0A03E1E151E7080AE27F
:10095000E451030807E303E1E351F50803E3010E63
:10096000016E1CD0E25106080FE2FF0A03E1E151DB
:10097000CF080AE2E451090807E303E1E351D10893
:1009800003E3010E016E0AD0E45306E1E3512208AD
:1009900003E3010E016E02D0000E016E0001EFEFC5
:1009A00009F0036AC951910FE96E000E0320EA6E47
:1009B000EBC1EFFFC92B196AF2BE198EF29EEBC193
:1009C000F7F1E4DC19BEF28E1200C96BCA6BCF6975
:1009D000CE69CC91E9C1EBF1E4DFEAC1EBF1E1DFF3
:1009E0001200CFC0EAF1CEC0E9F1EAC1EBF1D9DFE4
:1009F000E9C1EBF1D6DFCF69CE69CB8112000101ED
:100A0000E0518009E36FE1C1E4F1DFC1E9F1EA6F90
:100A10000001DBDFE2C1EBF1C4DFE3DF1200010123
:100A2000ED51200DF350036A330F016E000E0322C7
:100A300001C0F1F103C0F2F1EF6BEE6BF06BF0511E
:100A40000F0811E3D890F035036AF125E96EF251F1
:100A50000320EA6EECCF03F0ED52EF50EE27035087
:100A6000EF23F02BECD7080EEE25F36F000EEF21ED
:100A7000F46FF431036EF331026E0332023203324B
:100A80000232033202320F0E031602C001F003C01D
:100A900002F000011200756B746B776B766B796BEB
:100AA000786BEBEF06F00101EC51060826E2FF0A35
:100AB00003E1EB51CF0821E2EC5109081EE303E109
:100AC000EB51CF081AE3D00EEB5DED6F070EEC593A
:100AD000EE6F800EED27000EEE23F2CFEFF1F29EC7
:100AE000EDC1A9FFA69CA69EA680A850EFBFF28EDE
:100AF000036A016E0350026ED7D1EB51006EEC51C8
:100B0000036E035005E100520001D8B4DFD00101AB
:100B1000035006E1010E005C0001D8B4E9D00101E8
:100B2000035006E1020E005C0001D8B4ECD00101D4
:100B3000035006E1030E005C0001D8B4F6D00101B9
:100B4000035006E10A0E005C0001D8B4FAD001019E
:100B5000035006E10B0E005C0001D8B4FDD001018A
:100B6000035006E1140E005C0001D8B4FDD0010171
:100B7000035006E1150E005C0001D8B401D101015B
:100B8000035006E1160E005C0001D8B400D101014B
:100B9000035006E1170E005C0001D8B4FFD001013C
:100BA000035006E11E0E005C0001D8B4FED0010126
:100BB000035006E11F0E005C0001D8B4FDD0010116
:100BC000035006E1200E005C0001D8B4FCD0010106
:100BD000035006E1210E005C0001D8B4FBD00101F6
:100BE000030E035C06E1E80E005C0001D8B4F9D006
:100BF0000101030E035C06E1E90E005C0001D8B4BC
:100C0000F8D00101030E035C06E1EA0E005C00016E
:100C1000D8B4F6D00101030E035C06E1EB0E005CD4
:100C20000001D8B4F4D00101030E035C06E1EC0E20
:100C3000005C0001D8B4F2D00101030E035C06E1B0
:100C4000ED0E005C0001D8B4F0D00101030E035C8E
:100C500006E1EE0E005C0001D8B4EED00101030EF7
:100C6000035C06E1EF0E005C0001D8B4EDD0010199
:100C7000030E035C06E1F00E005C0001D8B4EBD07B
:100C80000101030E035C06E1F10E005C0001D8B423
:100C9000EAD00101030E035C06E1F20E005C0001E4
:100CA000D8B4E8D00101030E035C06E1F30E005C4A
:100CB0000001D8B4E6D00101030E035C06E1F40E96
:100CC000005C0001D8B4E5D00101EAD0D8907335BA
:100CD000036A330FE96E000E0320EA6EECCF03F0D7
:100CE000ED52EFCF01F003C002F00101DDD00001B1
:100CF0000101ED6B000193DE0150016E0250026EA6
:100D00000101D2D00001D8907335036A530FE96E08
:100D1000000E0320EA6EECCF03F0ED52EF50016EAF
:100D20000350026E0101C0D00001010E0101ED6F00
:100D3000000175DE0150016E0250026E0101B4D057
:100D400000019388000E81B8010E036A016E035002
:100D5000026E0101A9D00001036A8C51016E03509B
:100D6000026E0101A1D000017B51036E7A517A2BF2
:100D7000D8B47B2B016E0350026E010195D00001A7
:100D80007E51016E7F51026E01018ED000017C51B7
:100D9000016E7D51026E010187D000018151016E0B
:100DA0008251026E010180D000017451016E7551B3
:100DB000026E010179D000017651016E7751026E09
:100DC000010172D000017851016E7951026E01016A
:100DD0006BD0000160D6000E016E026E010164D07E
:100DE0000001036A1D50016E0350026E01015CD0C8
:100DF00000011E50016E1F50026E010155D000010E
:100E0000500E016E000E026E01014ED00001430E25
:100E1000016E000E026E010147D00001500E016EFE
:100E2000000E026E010140D00001010E016E000EA5
:100E3000026E010139D00001036A1B50016E03509C
:100E4000026E010131D000012050016E2150026E6E
:100E500001012AD00001036A2250016E0350026E84
:100E6000010122D000012350016E2450026E0101C5
:100E70001BD000012550016E2650026E010114D0D6
:100E80000001036A2750016E0350026E01010CD06D
:100E90000001036A3250016E0350026E010104D05A
:100EA000FF0E016E026E00D000017BEF07F0E0C183
:100EB000E9F1DFC1EAF189DDD8900101E335E96F9D
:100EC000E435EA6FE9C1EBF100016BDD0101E66B8E
:100ED000E56BE651E45D22E303E1E351E55D1EE2EB
:100EE000E551E125E96FE651E221EA6FEC6FE9C1D6
:100EF000EBF10001D8D502C0E8F101C0E7F1E8C18B
:100F0000E9F1E8C1EBF14DDDE7C1E9F1E7C1EBF152
:100F100048DD0101E52BD8B4E62BDBD7000161DD0C
:100F20000EEF0AF00101F26BF1C103F0F051D8B4F9
:100F3000F107F007F36F03C0F4F1F35302E1F45348
:100F40003CE0EFC103F0EE51E96E03C0EAFFEFCFE2
:100F5000F3F1F2C1F4F1F3C1F5F1F451F519016EB9
:100F600001C0F2F1ED51036EEC51EC2BD8B4ED2B36
:100F7000F36F03C0F4F1EF51036EEE51EE2BD8B4D2
:100F8000EF2BE96E03C0EAFFEFCFF5F1F3C1A9FF44
:100F9000F5C1A8FFA69CA69EA684F250006EF29E04
:100FA0000F01550EA76EAA0EA76EA682A6B2FED797
:100FB000A6940050F2120101B7D7F2C101F000016E
:100FC000F2EF07F00101EB6B1B0EEA6FED6B020E07
:100FD000EC6FEBC1EFF1EAC1EEF1F16B180EF06FBF
:100FE0000001A0D701C0E9F1A96AE9C1A8FFA69C48
:100FF000A69EA684F250006EF29E0F01550EA76EBB
:10100000AA0EA76EA682A6B2FED7A6940050F21230
:10101000000169EF09F00101E65106083AE2FF0A12
:1010200003E1E551CF0835E2E651090832E303E177
:10103000E551CF082EE3E851000808E2FF0A03E17A
:10104000E751000803E2030E016E46D1D00EE55DC4
:10105000E96F070EE659EA6F800EE927000EEA23D2
:10106000E9C1A9FFE7C1A8FFA69CA69EA684F250ED
:10107000006EF29E0F01550EA76EAA0EA76EA682F5
:10108000A6B2FED7A6940050F212000E016E010126
:1010900023D1000180531BE00101E551E80809E17B
:1010A000E651030806E1E7C11DF0000E016E14D100
:1010B0000DD0E551E9080AE1E651030807E1E8C16E
:1010C0001FF0E7C11EF0000E016E06D10001010104
:1010D000E551006EE651036E035006E10C0E005C14
:1010E0000001D8B465D00101030E035C06E1EE0EE9
:1010F000005C0001D8B467D00101030E035C06E177
:10110000EF0E005C0001D8B46BD00101030E035C4C
:1011100006E1F00E005C0001D8B468D00101030EB6
:10112000035C06E1F10E005C0001D8B46CD0010153
:10113000030E035C06E1F20E005C0001D8B468D037
:101140000101030E035C06E1F30E005C0001D8B45C
:101150006DD00101030E035C06E1F40E005C00019A
:10116000D8B471D00101070E035C06E1CD0E005C1E
:101170000001D8B475D00101070E035C06E1CE0E64
:10118000005C0001D8B476D00101070E035C06E1D3
:10119000CF0E005C0001D8B479D001014E0E035C83
:1011A00006E11F0E005C0001D8B47BD001018DD098
:1011B0000101E75302E1E85303E0030E016E8CD016
:1011C00000018C6B86D00101E85303E1E7518008F0
:1011D00003E2030E016E80D0E7C11BF0000179D05D
:1011E0009083E8C121F0E7C120F073D00101E853FA
:1011F00003E1E751010803E2030E016E6DD0E7C180
:1012000022F0000166D0E8C124F0E7C123F061D0EC
:101210000101E75305E1E85303E1030E016E5CD0E1
:10122000E8C126F0E7C125F0000153D00101E853E1
:1012300003E1E751010803E2030E016E4DD0E7C15F
:1012400027F0000146D00101E85303E1E75101080E
:1012500003E2030E016E40D0E7C132F0000139D045
:101260000101E72D02D0E85303E0030E016E34D0F4
:10127000FF0000010101E72D02D0E85303E0030E57
:10128000016E2AD0000181EC03F023D00101E72D8B
:1012900002D0E85303E0030E016E1ED0000192D687
:1012A00018D00101E7510A0803E1E851070806E0F8
:1012B0000001806B030E016E01010ED0010E0001D2
:1012C000806FC80E8D6F05D00101020E016E04D033
:1012D0000001000E016E010100011200E1C1E9F1FF
:1012E000060E0101EA6F0001E5EC04F0E3C1E6F14E
:1012F000E3C1EBF1D1EC04F0E2C1E6F1E2C1EBF1C4
:10130000D1EC04F0E5C1E6F1E5C1EBF1D1EC04F07C
:10131000E4C1E6F1E4C1EBF1D1EC04F0F1EC04F04E
:1013200045EF0AF0DFC1E9F1100E0101EA6F00019B
:10133000E5EC04F0E1C1E4F1E1C1EBF1D1EC04F042
:10134000E0C1E4F1E0C1EBF1D1EC04F0E3C1E4F180
:10135000E3C1EBF1D1EC04F0E2C1E4F1E2C1EBF165
:10136000D1EC04F0F1EC04F0A2EF0AF07FEF04F00E
:101370000152D8B405D11B50800804E01B50D05D49
:10138000D8A4F4D0743D03D0753D01D003D0742BA4
:10139000D8B4752B140E8D6FD251030A07E0070ADB
:1013A00005E0020A3CE0160A71E0CED0D4C0DAF1C2
:1013B000D5C0D9F1D6C0DCF1D7C0DBF10101DB51DA
:1013C000D925DF6FDC51DA21E06FDAC1E2F1D9C152
:1013D000E1F1E46FDFC1E3F1000190EF04F00152AD
:1013E00010E1D0C0DFF10101E16BD2C0E0F1020EEB
:1013F000E26F0001FFEC04F0796B020E786F8D6BE9
:101400000DD0D2C0DFF1D0C0E0F1DAC1E2F1D9C134
:10141000E1F1DCC1E4F1DBC1E3F149D5A4D0D4C0F2
:10142000DAF1D5C0D9F1D6C0E0F1D7C0DFF1DAC129
:10143000E6F1D9C1E5F1D6C0E8F1D7C0E7F1EBDDBF
:1014400001C0DDF10101DD5310E0D0C0DFF1E16B3F
:10145000D2C0E0F1DDC1E2F10001FFEC04F0796BF4
:10146000DDC178F08D6B11D00101D6C0E0F1D7C09D
:10147000DFF1D0C0E1F1DAC1E3F1D9C1E2F1D6C0C8
:10148000E5F1D7C0E4F1000129D76DD0D4C0DAF17D
:10149000D5C0D9F1D6C0DCF1D7C0DBF10101DE6BDC
:1014A000DC5303E1DB51DE5D3FE2DE51D925DF6F26
:1014B000000EDA21E06FD890DE35050FD40FE96E0B
:1014C000EA6AD8B0EA2AEFCFE1F1D890DE35060F0C
:1014D000D40FE96EEA6AD8B0EA2AEFCFE2F1E1C1AF
:1014E000E4F1E2C1E3F1E0C1E6F1DFC1E5F1E1C120
:1014F000E8F1E2C1E7F100018EDD01C0DDF101019B
:10150000DD5310E0D0C0DFF1E16BD2C0E0F1DDC10E
:10151000E2F10001FFEC04F0796BDDC178F08D6B36
:10152000010102D0DE2BBCD7DD530CE1D0C0DFF1CE
:10153000DAC1E1F1D9C1E0F1DCC1E3F1DBC1E2F1F3
:101540000001F0D600010FD0D0C0DFF10101E16B46
:10155000D2C0E0F1010EE26F0001FFEC04F0796B04
:10156000010E786F8D6B826B816B0AD0763D03D054
:10157000773D01D003D0762BD8B4772B0A0E8D6F30
:10158000BAEF0BF0F86AD09E078EEA6AE96A1A6A27
:10159000B886440EAF6E000EB06EA60EAC6E900E06
:1015A000AB6ECC91CD6B0101D36BD56BD46BD76B8C
:1015B000D66B000E7E6EC190C192C194C1967F6EB3
:1015C0006B6A6D6AD0500F0BD0A8000ED080D0820D
:1015D000D088D886D888D86F00017BEF02F0180E2B
:1015E000F66E040EF76E0A0E0101D96F0001C2EC0F
:1015F00002F0280EF66E040EF76ED7EC02F00D0E18
:101600009EA8FED7AD6E0A0E9EA8FED7AD6E320E16
:10161000F66E040EF76E120E0101D96F0001C2ECD6
:1016200002F0D8C1D9F11B0E0101DA6F0001FEEC06
:1016300002F0200E9EA8FED7AD6E0101D851070A18
:1016400000010DE00C0A12E0040A17E0030A1CE096
:10165000020A21E00D0A26E0030A2BE031D0480EF1
:10166000F66E040EF76ED7EC02F030D0540EF66E24
:10167000040EF76ED7EC02F029D0640EF66E040E5D
:10168000F76ED7EC02F022D0720EF66E040EF76EF3
:10169000D7EC02F01BD0820EF66E040EF76ED7EC7C
:1016A00002F014D0940EF66E040EF76ED7EC02F032
:1016B0000DD0A40EF66E040EF76ED7EC02F006D035
:1016C000B60EF66E040EF76ED7EC02F0C00EF66E94
:1016D000040EF76ED7EC02F09AEF03F01B5080086F
:1016E00002E281EC03F0F40E8D6FAB8EAB88C5EF98
:1016F00003F00101D86BD8511D0806E30001CCECC2
:1017000003F00101D82BF7D727C083F0C40EF66E83
:10171000040EF76E0A0ED96F0001C2EC02F0EC0E57
:10172000F66E040EF76ED7EC02F0D00EF66E040ED5
:10173000F76E170E0101D96F0001C2EC02F01BC059
:10174000D9F11B0E0101DA6F0001FEEC02F00D0E63
:101750009EA8FED7AD6E0A0E9EA8FED7AD6E040001
:1017600090A502D0FCEF03F090A103D09091CCECB7
:1017700003F0FCD5CBA107D0CB919D9A510E006E02
:10178000002EFED79D88CBA307D0CB93510E006EC1
:0C179000002EFED7BFEC03F0E2D70300F0
:020000040030CA
:0E00000000281E190000890003C003E0034021
:00000001FF
;PIC18F14K22
;CRC=F338  CREATED="21-Feb-16 05:45"
